:020000040800F2
:10000000A058002069020008D937000885150008AB
:10001000D5370008EB0900086381000800000000E4
:10002000000000000000000000000000294300085C
:10003000250F0008000000006938000899440008F6
:10004000830200088302000883020008830200087C
:10005000830200088302000883020008830200086C
:10006000830200088302000883020008830200085C
:10007000830200088302000883020008830200084C
:10008000830200088302000883020008830200083C
:10009000830200088302000883020008290F000879
:1000A000830200088302000883020008830200081C
:1000B000830200088302000883020008830200080C
:1000C00083020008830200088302000883020008FC
:1000D000830200088302000883020008317F0008C1
:1000E00083020008830200088302000883020008DC
:1000F00083020008830200088302000883020008CC
:1001000083020008830200088302000883020008BB
:1001100083020008830200088302000883020008AB
:10012000830200088302000883020008830200089B
:10013000830200088302000883020008830200088B
:10014000830200088302000883020008830200087B
:10015000830200088302000883020008830200086B
:10016000830200088302000883020008830200085B
:10017000830200088302000883020008830200084B
:10018000830200088302000800F002F800F05CF827
:100190000AA090E8000C82448344AAF10107DA45E2
:1001A00001D100F051F8AFF2090EBAE80F0013F0D8
:1001B000010F18BFFB1A43F001031847CCEC0000F5
:1001C000ECEC00000A444FF0000C10F8013B13F077
:1001D000070408BF10F8014B1D1108BF10F8015BA0
:1001E000641E05D010F8016B641E01F8016BF9D193
:1001F00013F0080F1EBF10F8014BAD1C0C1B09D1EA
:100200006D1E58BF01F801CBFAD505E014F8016B5B
:1002100001F8016B6D1EF9D59142D6D370470000ED
:100220000023002400250026103A28BF78C1FBD8FF
:10023000520728BF30C148BF0B6070471FB509F097
:10024000C4FE1FBD10B510BD00F0BEF81146FFF78B
:10025000F5FF08F0C5FE00F0DCF803B4FFF7F2FF8D
:1002600003BC08F055FD00000948804709480047D5
:10027000FEE7FEE7FEE7FEE7FEE7FEE7FEE7FEE756
:10028000FEE7FEE704480549054A064B70470000B3
:100290009D44000889010008A0520020A0580020B9
:1002A000A0540020A0540020704753EA020C00F034
:1002B00069802DE9F04B4FF00006002B1FBFB3FA09
:1002C00083F503FA05F424FA05F65E4012BF1643DF
:1002D000B2FA82F502FA05F4C5F120051EBF22FA32
:1002E00005FC44EA0C04203556EA044C4FEA144459
:1002F00018BF641C4FF000084FF00009904271EBEA
:10030000030C39D3002919BFB1FA81F701FA07F6B6
:10031000B0FA80F700FA07F6C7F120071EBF20FAEF
:1003200007FC46EA0C062037B6FBF4FCA7EB0507F2
:10033000103F07F01F0BCBF120060CFA0BFB2CFA39
:1003400006F644BFB3460026202FA4BF5E464FF0FA
:10035000000B5BEA060C08BF4FF0010B19EB0B0911
:10036000ABFB027C48EB0608C01B06FB02CC0BFB78
:1003700003CC71EB0C01C1E70B46024641464846EF
:10038000BDE8F08B13B54FF000004FF00001AFF364
:100390000080BDE81C407047704770477047704749
:1003A00010B500F009F8006810BD10B5044600F063
:1003B00003F8046010BD0000004870473C52002064
:1003C000004870473C5200207546FFF7F9FFAE46E3
:1003D00005006946534620F00700854618B020B551
:1003E000FFF750FFBDE820404FF000064FF0000738
:1003F0004FF000084FF0000B21F00701AC46ACE8CD
:10040000C009ACE8C009ACE8C009ACE8C0098D4639
:10041000704710B50446AFF300802046BDE8104099
:10042000FFF71BBF10B51021054800F014FF142082
:1004300008F0AAFC1021024800F00BFF10BD0000DC
:100440000010024010B500F00BF800F079F80348F6
:1004500000F0B8F8322008F07BFC10BD430B002000
:100460001CB50121102003F067FD0121102003F0CD
:1004700063FD0121102003F05FFD0121102003F036
:100480005BFD0121102003F057FD0121102003F036
:1004900053FD0121102003F04FFD01208DF80400D1
:1004A00000208DF8060003208DF8050001208DF84E
:1004B000070000906946214800F057FE0220009096
:1004C00069461E4800F051FE0820009069461B480E
:1004D00000F04BFE042000906946184800F045FEED
:1004E000102000906946154800F03FFE2020009043
:1004F0006946124800F039FE4020009000208DF837
:10050000040069460D4800F030FE01210B4800F060
:10051000A0FE0821094800F09CFE0221074800F0D7
:1005200098FE0421054800F094FE1021034800F0D5
:1005300090FE2021014800F08EFE1CBD00100240FC
:1005400010B520210A4800F084FE022008F000FCCB
:100550002021074800F07FFE0A2008F0F9FB202147
:10056000034800F076FE322008F0F2FB10BD0000D8
:100570000010024070B50546002400BF1DE0287839
:10058000A04000F0800020B108210D4800F063FE7B
:1005900003E008210A4800F05CFE012008F0F4FBAB
:1005A0000221074800F057FE012008F0EDFB022170
:1005B000034800F04EFE601CC4B2082CDFDB70BDA7
:1005C0000010024010B5044601210F4800F041FE22
:1005D000012008F0D9FBFFF725FF0C48FFF7CAFF01
:1005E0002046FFF7C7FF601CFFF7C4FFA01CFFF702
:1005F000C1FFE01CFFF7BEFF012008F0C5FB012191
:10060000014800F028FE10BD00100240190B002028
:100610001CB50121042003F08FFC0121042003F00C
:100620008BFC0121042003F087FC0121042003F04E
:1006300083FC01208DF8040000208DF806000220C4
:100640008DF8050001208DF8070080200090694694
:10065000164800F08AFD402000906946134800F0DB
:1006600084FD4FF4807000906946104800F07DFDD5
:100670004FF40070009000208DF8040069460B488C
:1006800000F073FD8021094800F0E3FD4FF4807114
:10069000064800F0DEFD4021044800F0DCFD00F0DB
:1006A00009F80349888800F015F81CBD00080240CD
:1006B000285100204CF2E330054908804DF2E33028
:1006C00048804EF2E33088804FF2E330C8807047B4
:1006D000285100202DE9F041074600244FF400483E
:1006E000002600204A4908803D464021494800F044
:1006F000B0FD012008F048FB00BF35E080214548EF
:1007000000F0A9FD012008F03FFB05EA080028B130
:100710004FF480713F4800F09EFD04E04FF480717B
:100720003C4800F096FD4FF6FF7000EA45050120B9
:1007300008F02AFB8021374800F08BFD012008F0EB
:1007400023FB4FF40071334800F07AFD10B146F0FE
:10075000010601E026F001064FF6FF7000EA4606AA
:10076000012008F011FB641C102CC7DB3D4600245F
:1007700041E08021274800F06EFD012008F004FBD5
:1007800005EA080028B14FF48071224800F063FDAB
:1007900004E04FF480711F4800F05BFD4FF6FF70DE
:1007A00000EA4505012008F0EFFA8021194800F021
:1007B00050FD012008F0E8FA4FF40071154800F0F0
:1007C0003FFD30B11248008840F001001049088018
:1007D00005E00F48008820F001000D4908800C4812
:1007E00000884FF6FF7101EA4000094908800120A6
:1007F00008F0CAFA641C102CBBDB4021054800F04D
:100800002AFD40F2DC5008F0BFFA3046BDE8F08126
:10081000100B00200008024030B52DED108B83B086
:1008200004460D46B0EE409AF0EE609AB0EE41AA52
:10083000F0EE61AA9FED5D0B8DED000B04F6A84074
:1008400000EBC50090ED001BB0EE410AF0EE610A2E
:1008500053EC102B51EC190B09F05CFA41EC1D0B19
:1008600004EBC50090ED001BB0EE410AF0EE610A0A
:1008700053EC102B51EC1D0B08F082FD41EC1B0BCF
:1008800041F62810204400EBC50090ED001BB0EEAF
:10089000410AF0EE610A53EC102B51EC1A0B09F0EF
:1008A00039FA41EC1D0B04EBC50090ED001BB0EED6
:1008B000410AF0EE610A53EC102B51EC1D0B08F0CD
:1008C0005FFD41EC1C0B53EC1C2B51EC1C0B09F095
:1008D00015F841EC1E0B53EC1B2B51EC1B0B09F0D4
:1008E0000DF841EC1F0B53EC1E2B08F095FC41EC6E
:1008F0001D0BB0EE4D0AF0EE6D0A08F009F9B0EEEE
:10090000408AF0EE608A53EC182B9FED2A0B51ECD5
:10091000100B09F0FFF941EC1D0B53EC1D2B51ECB2
:10092000180B08F02DFD41EC180BB0EE480AF0EE64
:10093000680A08F055F8B0EE40DAF0EE60DA9FEDA4
:100940001F0B53EC102B51EC1D0B08F0D7FF42F29C
:10095000A852224402EBC50203C242F2A85020442E
:1009600000EBC50090ED001BB0EE410AF0EE610A0D
:1009700053EC102B9DED001B51EC110B08F0BEFF4A
:1009800041EC1E0B9FED0F0B53EC102B09F0EAF816
:1009900041EC1D0B08F088FE43F6A861214421F8C4
:1009A000150003B0BDEC108B30BD0000000000004E
:1009B00000001C400000000000000040000000009B
:1009C00000003440000000000080614070B5049CCD
:1009D000018442848384C484458C068CAD1B85804D
:1009E000C58C868CAD1BC58070BD00BFFEE70000C6
:1009F00010B588B0002400BF0FE00020694601EB6D
:100A0000C40108710320694601EBC401487101204B
:100A1000694601EBC401C871641C042CEDDB08209D
:100A20000090000302904010049040100690694628
:100A3000084800F09AFB02A9074800F096FB04A9B9
:100A4000054800F092FB06A9034800F08EFB08B0B1
:100A500010BD0000000402400018024010B588B02C
:100A6000002400BF14E00120694601EBC4010871B5
:100A70000020694601EBC40188710320694601EB3F
:100A8000C40148710220694601EBC401C871641CAD
:100A9000042CE8DB08200090000302904010049032
:100AA000401006906946124800F05FFB02A9114809
:100AB00000F05BFB04A90F4800F057FB06A90D48A6
:100AC00000F053FB08210A4800F0C3FB4FF400413B
:100AD000084800F0BEFB4FF48041064800F0B9FB27
:100AE0004FF40051034800F0B4FB08B010BD000003
:100AF00000040240001802402DE9F04F2DED088B54
:100B000083B004460F4690469946B4F8580008F062
:100B100060FE41EC1A0B94ED0A2BB0EE420AF0EEA7
:100B2000620A94ED0C2BB0EE421AF0EE621A53EC0E
:100B3000102B51EC110B09F0EDF841EC1B0B53ECB1
:100B40001A2B08F01DFC41EC180BB4F85A0008F001
:100B500040FE41EC1A0B94ED0E2BB0EE420AF0EE83
:100B6000620A94ED102BB0EE421AF0EE621A53ECCA
:100B7000102B51EC110B09F0CDF841EC1B0B53EC91
:100B80001A2B08F0FDFB41EC190BA088B4F85810A3
:100B900090FBF1F01FFA80FAE088B4F85A1090FB4D
:100BA000F1F01FFA80FB2780A4F80280C4F80890B7
:100BB0001498E0606388628C1946208C01F064FD13
:100BC000B4F802C0ACF10C0C1FFA8CF3B4F822C0DC
:100BD000ACF1140C1FFA8CF26188608C01F054FDAA
:100BE000B4F802C00CF10C0C1FFA8CF3B4F822C05C
:100BF000ACF1140C1FFA8CF26188608C01F044FD9A
:100C0000E38C2288A18C104601F03EFDB4F824C08C
:100C10000CF1140C1FFA8CF3B4F800C0ACF10C0CFE
:100C20001FFA8CF2A18C208801F02EFDB4F824C0AC
:100C30000CF1140C1FFA8CF3B4F800C00CF10C0C7E
:100C40001FFA8CF2A18C208801F01EFD002000907C
:100C50006288921C91B222880E3A90B218233022F8
:100C600002F004FB012633E0704208F04AFD41EC3B
:100C70001B0B53EC182B08F041FE41EC1A0B94EDC2
:100C80000A1BB0EE410AF0EE610A53EC102B08F09B
:100C900033FF1BD2704208F034FD41EC1B0B53ECC8
:100CA000182B08F02BFE41EC1A0B1820009022881C
:100CB00006FB1A2290B26288921C91B2052301228F
:100CC000B0EE4A0AF0EE6A0A02F070FB701C86B2BF
:100CD000B4F85800B042C7DA012633E0304608F0D5
:100CE00078FD41EC1B0B53EC182B08F007FE41EC90
:100CF0001A0B94ED0C1BB0EE410AF0EE610A53ECB6
:100D0000102B08F0BFFD1BD2304608F062FD41EC0D
:100D10001B0B53EC182B08F0F1FD41EC1A0B1820BB
:100D20000090228806FB0A2290B26288921C91B23F
:100D300005230122B0EE4A0AF0EE6A0A02F036FB01
:100D4000701C86B2B4F85800B042C7DA012533E00F
:100D5000684208F0D6FC41EC1B0B53EC192B08F051
:100D6000CDFD41EC1A0B94ED0E1BB0EE410AF0EEF6
:100D7000610A53EC102B08F0BFFE1BD2684208F04A
:100D8000C0FC41EC1B0B53EC192B08F0B7FD41ECF8
:100D90001A0B18200090628805FB0B2291B2228862
:100DA000483A90B208230222B0EE4A0AF0EE6A0AEC
:100DB00002F0FCFA681C85B2B4F85A00A842C7DAFF
:100DC000012533E0284608F004FD41EC1B0B53ECF1
:100DD000192B08F093FD41EC1A0B94ED101BB0EEAB
:100DE000410AF0EE610A53EC102B08F04BFD1BD2C8
:100DF000284608F0EEFC41EC1B0B53EC192B08F0D5
:100E00007DFD41EC1A0B18200090628805FB1B2227
:100E100091B22288483A90B208230222B0EE4A0AE0
:100E2000F0EE6A0A02F0C2FA681C85B2B4F85A0001
:100E3000A842C7DA00211822A068CDE9002002915B
:100E400062880C3291B2628C90B21823F02202F0C8
:100E500025FC00211822E068CDE900200291A18C38
:100E600022880C3290B21823F02202F017FC03B053
:100E7000BDEC088BBDE8F08F2DE9F0472DED028B1E
:100E8000044600BF00BF00BF00BF002600210F4680
:100E9000884614E0A05D2E280FD00A220020394693
:100EA000A1FB02C908FB029207FB0022A05DA0F192
:100EB00030011CEB010742EBE17806F10106112E2F
:100EC00002DAA05D0028E5D13846414608F030FC42
:100ED00041EC180B002514E0605D2E2810D16D1C2C
:100EE0000AE09FED0E0B53EC102B51EC180B08F0A1
:100EF00047FA41EC180B6D1C605D0028F1D103E04E
:100F00006D1C605D0028E7D100BFB0EE480AF0EE2E
:100F1000680ABDEC028BBDE8F0870000000000000D
:100F2000000024407047000010B5C82007F02CFFD7
:100F30004FF4807000F014F848B103F029F9044927
:100F4000087001F0F3F84FF4807000F003F810BD62
:100F5000FC0A00200149086070470000143C014071
:100F600001460020034A12680A400AB1012000E04D
:100F700000207047143C014000B589B001210220D7
:100F800002F0DAFF0121022002F0D6FF0121202029
:100F900002F0D2FF0121402002F0CEFF4FF40050BA
:100FA000019001208DF8080000208DF80A00022031
:100FB0008DF8090001208DF80B000003039001213A
:100FC0008DF8101000218DF8121002218DF81110EB
:100FD00001218DF81310800005908DF81810002164
:100FE0008DF81A1002218DF8191001218DF81B10AF
:100FF00001200790002101A8017702214177C177E4
:1010000001A9104800F0B1F803A90E4800F0ADF8AE
:1010100005A90D4800F0A9F807A90C4800F0A5F8AB
:101020004FF40051074800F016F94FF4805105487D
:1010300000F00FF94FF48041034800F00AF909B0BD
:1010400000BD0000000402400014024000180240ED
:1010500051B18200A2F1C042126842F00103820045
:10106000A2F1C042136009E08200A2F1C0421268FE
:10107000034B1A408300A3F1C0431A60704700007D
:10108000FEFF0F00D0E901121143C268114302694B
:1010900011434269114382691143C2691143026AD3
:1010A0001143426A1143826A1143C26A1143026BBF
:1010B000114302689200A2F1C042116081680829C0
:1010C0000BD101688900A1F1C041096841F04002DB
:1010D00001688900A1F1C0410A60416B0968426B57
:1010E000526841EA0211426B926841EA0221426B66
:1010F000928941EA0241426B128A41EA0251426BF3
:10110000127D41EA0261426B926911430268521CEE
:101110009200A2F1C0421160C16AB1F5804F1BD1AB
:10112000816B0968826B526841EA0211826B926896
:1011300041EA0221826B128A41EA0251826B127DDE
:1011400041EA0261826B9269114302689200A2F146
:10115000C042C2F8041107E06FF0704201688900D4
:10116000A1F1C041C1F804217047F0B50A46002141
:101170000023002400BF3DE0012505FA01F31568B6
:1011800005EA03049C4234D105684F000326BE40A3
:10119000B543056015794E00B540066835430560D6
:1011A0001579012D02D01579022D16D185684F00D1
:1011B0000326BE40B543856055794E00B54086682C
:1011C00035438560456801268E40B54345604568D6
:1011D00096798E40B6B235434560C5684F00032608
:1011E000BE40B543C560D5794E00B540C6683543AD
:1011F000C560491C1029BFD3F0BDF0B50023002401
:101200004D07ED0E02FA05F3CE1000F1200555F85A
:1012100026504E07F70E0F26BE40B543CF1000F103
:10122000200646F82750CE1000F1200555F826502C
:1012300045EA0304CE1000F1200545F82640F0BD34
:101240000246002013690B400BB1012000E0002092
:101250007047418370470183704700002DE9F04FCC
:101260002DED088B83B004468B46C1480088029060
:10127000A088B4F85810490090FBF1F01FFA80F8EC
:10128000E088B4F85A10490090FBF1F01FFA80F999
:10129000A08808F09EFA41EC190B9FEDB60B53ECB9
:1012A000102B08F06DF841EC180B08F0FDF91FFA4F
:1012B00080FAE0880A2190FBF1F087B2AC48A0F8F0
:1012C00000B0012618E0002512E0B4F85800B04242
:1012D0000CD0E28C05EB8503A2EB430291B2228C89
:1012E00006FB082290B25A4601F048FA681C85B203
:1012F000BD42EADB701C86B2B4F858004000B04230
:10130000E1DC01252FE0002629E0B4F85A00A842CC
:1013100023D0700008F0F5F941EC1B0B9FED970B03
:1013200053EC102B08F0EAFA41EC190B208C08F072
:1013300050FA41EC1A0B53EC192B07F06DFF41ECFE
:10134000180B08F0B1F980B20190E08C05FB190090
:1013500081B25A46019801F011FA701C86B25645C6
:10136000D3DB681C85B2B4F85A004000A842CADC3E
:1013700000264EE00AEBDA71B6EB610F47D0700041
:1013800008F0BFF941EC1B0B9FED7C0B53EC102BCD
:1013900008F0B4FA41EC190B208C08F01AFA41EC71
:1013A0001A0B53EC192B07F037FF41EC180B08F020
:1013B0007BF980B20190700008F0A3F941EC1B0B9F
:1013C0009FED6E0B53EC102B08F098FA41EC190BC3
:1013D000208C08F0FEF941EC1A0B53EC192B07F0A6
:1013E0001BFF41EC180B08F05FF980B20090E08C15
:1013F000B4F85A2002FB1900801C83B2E08C02FB77
:101400001900801E81B2DDE9000201F03DF9701C77
:1014100086B25645AEDB002532E007EBD77252109C
:10142000521CAA422AD007EBD7725210AA4225D0EA
:10143000B4F826C005EB850EACEB4E0C1FFA8CF30E
:10144000B4F820C0B4F858E00EFB08CC0CF1020C44
:101450001FFA8CF2B4F826C005EB850EACEB4E0CEF
:101460001FFA8CF1B4F820C0B4F858E00EFB08CC99
:10147000ACF1020C1FFA8CF001F006F9681C85B281
:10148000BD42CADBB4F826C007EB870EACEB0E0CEE
:101490001FFA8CF3B4F820C0B4F858E00EFB08CC67
:1014A0000CF1020C1FFA8CF2B4F826C007EB870E81
:1014B000ACEB0E0C1FFA8CF1B4F820C0B4F858E075
:1014C0000EFB08CCACF1020C1FFA8CF001F0DCF83A
:1014D000504608F07EF941EC1B0B9FED280B53ECB6
:1014E000102B08F00BFA41EC190B208C08F071F965
:1014F00041EC1A0B53EC192B07F08EFE41EC180B44
:1015000008F0D2F880B20190504608F062F941EC40
:101510001B0B9FED1A0B53EC102B08F0EFF941EC6D
:10152000190B208C08F055F941EC1A0B53EC192BD0
:1015300007F072FE41EC180B08F0B6F880B200908C
:10154000E08CB4F85A2002FB1900801C83B2E08CB6
:1015500002FB1900801E81B2DDE9000201F094F85F
:1015600003490298088003B0BDEC088BBDE8F08FFA
:10157000520B00200000000000002E400000000080
:1015800000001E4000BFFEE700F6A84202EBC102C9
:1015900082ED000B7047704710B512480068114982
:1015A000C98810F811000B2818D2DFE800F00607F0
:1015B00008090A0E12131415160010E00FE00EE0D1
:1015C0000DE008488168884709E006488168884737
:1015D00005E004E003E002E001E000E000BF00BF3E
:1015E00010BD0000B40B002010B53B4800683A491C
:1015F000C98810F811000B286BD2DFE800F006074D
:10160000131F2B343D49515D690063E032488088E7
:10161000012806D13048816888472F480221C268D6
:10162000904757E02C488088012806D12A488168D5
:10163000884729480321C26890474BE026488088A4
:10164000012806D124488168884723480121C268BF
:1016500090473FE020488088022803D11E48062199
:10166000C268904736E01C488088022803D11A4897
:101670000821C26890472DE017488088032806D1CA
:1016800015488168884714480721C268904721E0BF
:1016900011488088032802D10F488168884719E0E3
:1016A0000D488088032806D10B48816888470A487E
:1016B0000921C26890470DE007488088032806D1B9
:1016C00005488168884704480721C268904701E0BF
:1016D00000E000BF00BF10BDB40B002000B587B014
:1016E0009FEDFE0B8DED040BFE480068FD49C98897
:1016F00010F811000A287CD2DFE800F07B056CAC02
:10170000F0EEEDECEBEA002000F0DCFD0020F6A1AD
:1017100030221023CDE9002102904FF461720A219A
:101720001E2001F0BBFF0020F5A130221023CDE9DF
:10173000002102904FF496726E211E2001F0AEFF40
:101740000020F2A130221023CDE9002102904FF4B5
:101750009672D2211E2001F0A1FF0020EDA13022BF
:101760001023CDE9002102904FF496726E2140F2D1
:101770008A2001F093FF0020E7A130221023CDE959
:10178000002102904FF49672D22140F28A2001F09B
:1017900085FF30200090E14890ED000B8DED020BAD
:1017A0000C2304229DED020B6E214FF4967001F084
:1017B000FDFD30200090D94890ED020B8DED020B1D
:1017C0000C2304229DED020BD2214FF4967001F000
:1017D000EDFD48E2002000F075FDD1A3D3A28C21DD
:1017E000322000F0F3FED448007801280FD1002009
:1017F00000E0A8E3D1A118221346CDE90021029010
:101800007822014640F28A2001F048FF21E0CA48D0
:10181000007868B90020CCA118221346CDE9002138
:101820000290A022014640F28A2001F037FF10E02A
:10183000C148007802280CD10020C7A11822134605
:10184000CDE9002102907822014640F28A2001F081
:1018500025FF08E2002000F035FDC1A3B3A2F0216E
:10186000322000F0B3FEB448007801280DD10020EA
:10187000B2A118221346CDE9002102907822014638
:1018800040F28A2001F00AFF21E0AB48007868B9F5
:101890000020ADA118221346CDE900210290A0221C
:1018A000014640F28A2001F0F9FE10E0A2480078DB
:1018B00002280CD10020A8A118221346CDE900214E
:1018C00002907822014640F28A2001F0E7FECBE345
:1018D000E0E295E2C8E174E171E0FFE7002000F08A
:1018E000F1FCA348008830231A460A21009040F2F8
:1018F000ED2000F001FE00207BA130221023CDE975
:10190000002102904FF461720A211E2001F0C6FEF0
:1019100000207BA130221023CDE9002102904FF45A
:1019200096726E211E2001F0B9FE002077A13022B0
:101930001023CDE9002102904FF49672D2211E208F
:1019400001F0ACFE002073A130221023CDE900216C
:1019500002904FF496726E2140F28A2001F09EFEB2
:1019600000206DA130221023CDE9002102904FF418
:101970009672D22140F28A2001F090FE3020009031
:10198000664890ED000B8DED020B0C2304229DEDBB
:10199000020B6E214FF4967001F008FD302000908C
:1019A0005E4890ED020B8DED020B0C2304229DEDA1
:1019B000020BD2214FF4967001F0F8FC54E30020A2
:1019C00000F080FC6A48008830231A460A21009003
:1019D00040F2ED2000F090FD002066A1302210239F
:1019E000CDE9002102904FF461720A211E2001F01E
:1019F00055FE002066A130221023CDE9002102907F
:101A00004FF496726E211E2001F048FE002062A164
:101A100030221023CDE9002102904FF49672D2219A
:101A20001E2001F03BFE002038A130221023CDE91A
:101A3000002102904FF496724FF49B711E2001F02A
:101A40002DFE002033A130221023CDE90021029089
:101A50004FF496726E2140F28A2001F01FFE0020A2
:101A60002CA130221023CDE9002102904FF4967270
:101A7000D22140F28A2001F011FE002026A130225E
:101A80001023CDE9002102904FF496724FF49B7120
:101A900040F28A2001F002FE302000901F4890EDB5
:101AA000040B8DED020B0C2304229DED020B6E2125
:101AB0004FF4967001F07AFC30200090174890EDBA
:101AC000060B8DED020B0C2304229DED020BD2219F
:101AD0004FF4967001F06AFC302061E000000000D5
:101AE00000000000B40B00204D6F64653A202020F8
:101AF00020202053696E676C652D546F6E65000061
:101B00004672657175656E63793A0000537465704D
:101B10003A0000004D487A006B487A00C80B00205C
:101B200032306C677C417C2F64420000662F31307C
:101B3000306B487A00000000C40B002043757474B9
:101B4000696E674F75740000436F73436F727265FF
:101B50006374696F6E0000004E6F726D616C0000FF
:101B600050686173652F64656772656500000000E9
:101B7000520B00204D6F64653A2020202020205316
:101B8000776565702D4672657175656E63790000C5
:101B90004D696E3A000000004D61783A0000000087
:101BA0000090FE4890ED080B8DED020B0C230422F3
:101BB0009DED020B4FF49B714FF4967001F0F6FB14
:101BC00052E26E214FF4967007F036F98DED040B5A
:101BD000F3480068012830D19FEDF20B53EC102B35
:101BE0009DED040B51EC100B07F086FF03D29FED27
:101BF000ED0B8DED040B9FEDED0B53EC102B9DEDDC
:101C0000040B51EC100B07F03DFE03D29FEDE70BE8
:101C10008DED040B30200A23042200909DED040B6F
:101C20006E214FF4967001F0C1FB9DED040BDB4873
:101C300080ED000B0020DA490860DE4800884FF490
:101C4000E57340F21F320A21009040F2ED2000F0CF
:101C500055FED948008830231A466E21009040F284
:101C6000EF2000F049FCFFE1D24800884FF4E57313
:101C700040F21F320A21009040F2ED2000F03EFEBB
:101C8000CE480168C088401E11F81000042865D1B4
:101C9000C948008830231A46D221009040F2EF2034
:101CA00000F02AFCD2214FF4967007F0C5F88DEDB4
:101CB000040BBB48006801284FD1B84890ED000BD9
:101CC0008DED000B9FEDBE0B53EC102B9DED000B2B
:101CD00051EC100B07F012FECDE902019DED040B53
:101CE00053EC102B9DED020B51EC100B07F0CAFDCD
:101CF00011D2AA4890ED000B8DED020B9FEDB00BB9
:101D000053EC102B9DED020B51EC100B07F0F6FD80
:101D1000CDE904010EE09FEDAC0B53EC102B9DEDD3
:101D2000040B51EC100B07F0E7FE03D29FEDA60B5E
:101D30008DED040B30200A23042200909DED040B4E
:101D4000D2214FF4967001F031FB9DED040B9348C6
:101D500080ED020B00209249086050E0974801682E
:101D6000C088401E11F81000052848D1924800880C
:101D700030231A464FF49B71009040F2EF2000F0A0
:101D8000BBFB4FF49B714FF4967007F055F88DED47
:101D9000040B83480068012831D19FED8B0B53EC75
:101DA000102B9DED040B51EC100B07F0A5FE03D298
:101DB0009FED850B8DED040B9FED7C0B53EC102BF1
:101DC0009DED040B51EC100B07F05CFD03D29FED71
:101DD000770B8DED040B30200A23042200909DED3B
:101DE000040B4FF49B714FF4967001F0DFFA9DEDF8
:101DF000040B6A4880ED080B00206949086033E154
:101E00006E214FF4967007F017F88DED040B6448BF
:101E10000068012827D1614890ED060B8DED020B7B
:101E20009DED020B53EC102B9DED040B51EC100BB0
:101E300007F062FE04D2594890ED060B8DED040BBD
:101E400030200A23042200909DED040B6E214FF4F4
:101E5000967001F0ABFA9DED040B504880ED040B39
:101E600000204F490860534800884FF4E57340F262
:101E70001F320A21009040F2ED2000F03FFD4E4855
:101E8000008830231A466E21009040F2EF2000F0C7
:101E900033FBE9E0D2214FF4967006F0CDFF8DEDD3
:101EA000040B3F480068012836D19FED490B53ECE5
:101EB000102B9DED040B51EC100B07F01DFE03D20F
:101EC0009FED430B8DED040B344890ED040B8DED2D
:101ED000020B9DED020B53EC102B9DED040B51EC0E
:101EE000100B07F0CFFC04D22C4890ED040B8DEDC5
:101EF000040B30200A23042200909DED040BD22114
:101F00004FF4967001F052FA9DED040B234880EDDA
:101F1000060B002022490860264800884FF4E5732C
:101F200040F21F320A21009040F2ED2000F0E6FC62
:101F30002148008830231A46D221009040F2EF2039
:101F400000F0DAFA90E00020AFF24C41302210238A
:101F5000CDE9002102904FF496720A211E2001F073
:101F60009DFB00201CA130221023CDE9002102900E
:101F70004FF496726E211E2001F090FB002018A1F4
:101F800030221023CDE9002102904FF49672D22125
:101F90001E2001F083FB002014A12DE0C80B0020BF
:101FA000F00A002000000000000044400000000093
:101FB0000000F03F540B0020520B0020B40B002017
:101FC0000000000000408F40000000000088D34067
:101FD0000000000000004940447574793A00000098
:101FE000496E74657276616C3A000000416D706CE8
:101FF00069747564653A000030221023CDE9002130
:1020000002904FF496724FF49B711E2001F046FB34
:10201000002017A130221023CDE9002102904FF4B7
:1020200096726E2140F28A2001F038FB002011A147
:1020300030221023CDE9002102904FF49672D22174
:1020400040F28A2001F02AFB00200BA1302210234D
:10205000CDE9002102904FF496724FF49B7140F24B
:102060008A2001F01BFB00BF00BF07B000BD0000CD
:1020700025000000755300006D56000010B529487A
:1020800000682849C98810F811000B2846D2DFE8FB
:1020900000F00607101128344041424344003EE05E
:1020A00020488088012803D11E480421C268904737
:1020B00035E000BF1C48007818B901201A490870A3
:1020C0000EE019480078012803D102201649087053
:1020D00006E015480078022802D100201249087055
:1020E0001DE010488088022806D10E488168884784
:1020F0000C480521C268904711E00A4880880228F0
:1021000006D108488168884706480421C26890477C
:1021100005E004E003E002E001E000E000BF00BFF2
:1021200010BD0000B40B0020C40B002010B51948EE
:102130000078102828D2DFE800F008090A0B0C0DFF
:102140000E0F101114171A20261D00BF00BF00BF6C
:1021500000BF00BF00BF00BF00BF00BFFFF71BFAFA
:1021600013E0FFF719FA10E000F01AF80DE0FFF79E
:102170003BFA0AE0FFF782FF07E0002006490870FB
:102180000649087001E000E000BF00BFFFF7A6FAB3
:1021900010BD0000FC0A0020C50B0020C60B00206B
:1021A00010B5404800683F49C98810F811000B2855
:1021B00075D2DFE800F00607131F2B343D455E663D
:1021C00073006DE037488088012806D13548816862
:1021D000884734480321C268904761E031488088CD
:1021E000012806D12F48816888472E480121C268FE
:1021F000904755E02B488088012806D129488168FE
:10220000884728480221C268904749E025488088CD
:10221000022803D123480721C268904740E02148A3
:102220008088022803D11F480721C268904737E001
:102230001C488088032802D11A48816888472FE00B
:1022400018488088032813D11648816888471548A4
:1022500000681449C98810F81100042804D11148F5
:102260000621C268904703E00E480921C2689047E2
:1022700016E00C488088032802D10A488168884704
:102280000EE008488088032806D106488168884700
:1022900004480821C268904702E000E000E000BF67
:1022A00000BF10BDB40B002030B5014601F01F0483
:1022B000C1F34513CA0AE50205EB43151544A8B25C
:1022C00030BD000070B504460026184805884088D7
:1022D00045431648808846F60401884216D11348C3
:1022E0008079012812D10020104988712A20488164
:1022F0002B2088810021084600F0DAFD01200B49DF
:1023000088712B2048812A20888103E0002108461B
:1023100000F0CEFD01F00EFA002602E00448048031
:10232000761CAE42FAD30348048070BD50510020A1
:102330008000006C540B002010B50446002C66D1C0
:102340006C498871F02008804FF4A07048800846DE
:10235000808849F2413188420BD06648808846F631
:102360000401884205D06348808845F210318842D4
:102370001AD12C205F4908812A2048812B2088818E
:102380000846808846F60401884205D0594880886E
:1023900045F21031884206D14FF4A07055490880AB
:1023A0004FF4F0704880A1E05248808845F2105107
:1023B000884210D14FF430504E4908814FF42850D4
:1023C00048814FF42C5088814FF4F07008804FF40E
:1023D000487048808AE04748808841F66311884207
:1023E0000DD12C20434908812B2048812A20888147
:1023F0004FF4F07008804FF44870488076E0222057
:102400003C49088120204881212088816EE00120FC
:10241000384988714FF4A0700880F0204880084641
:10242000808849F24131884205D03248808845F29F
:102430001031884207D12C202E4908812A2048815A
:102440002B2088813FE02B48808846F60401884293
:1024500007D12C20274908812B2048812A208881F8
:1024600031E02448808845F21051884210D14FF461
:102470003050204908814FF4285048814FF42C50A7
:1024800088814FF4487008804FF4F07048801AE05B
:102490001848808841F6631188420DD12C201549D7
:1024A00008812A2048812B2088814FF448700880B9
:1024B0004FF4F070488006E022200E490881212068
:1024C0004881202088810B48808846F60401884294
:1024D00005D00848808845F21031884206D14FF473
:1024E000F070044908804FF4A0704880002000F08C
:1024F00069FB10BD505100202DE9F04F2DED068BEA
:1025000083B00446884616461F46DDF848B00025CD
:10251000A946002002900190701000EE100AB8EE5B
:10252000C00AF7EE000A60EE200A00EE107AB8EE5C
:10253000400A80EE801A11EE10AA504607F0D4FC33
:1025400041EC180B254639E0281B07F0DAF841EC7E
:102550001A0B53EC182B07F0D1F941EC190B07F0CB
:10256000A3F808EB6601081A80B20290281B07F056
:10257000C8F841EC1A0B53EC182B07F0BFF941ECEB
:10258000190B07F091F808EB6601084480B201903E
:10259000DDF808900DE04946284600F089FC01F07E
:1025A000C9F84FF0D840A0F880B009F101001FFA37
:1025B00080F901988145EEDB681C85B2E019A842DC
:1025C000C2DC03B0BDEC068BBDE8F08FFEB504465F
:1025D0000D4616461F462B4640F21F322946002064
:1025E00000F052F8A5F10C0083B240F20B322946FC
:1025F00040F21F3000F048F805F10C0083B240F2C1
:102600000B32294640F21F3000F03EF840F2DF1353
:1026100022460021204600F037F8A4F10C0082B2D7
:1026200014230021204600F02FF804F10C0082B2A0
:1026300014230021204600F027F80020AA1C91B2A4
:10264000A4F10E02009090B21823302200F00EFE8A
:1026500000201821CDE90016029005F10C0081B28E
:102660001823F02240F2A72001F018F800201821CA
:10267000CDE90017029004F10C0188B21823F02272
:10268000002101F00BF8FEBD2DE9FF4F84B081461B
:102690008A460020039002900698A0EB090507984F
:1026A000A0EB0A06CDF80490CDF800A0002D01DDC6
:1026B000012705E00DB9002702E04FF0FF376D421A
:1026C000002E02DD4FF0010806E016B94FF00008B9
:1026D00002E04FF0FF387642B54201DD2C4600E0C3
:1026E00034464FF0000B23E0009A91B2019A90B269
:1026F000124A128800F042F8039828440390029886
:10270000304402900398A04205DD0398001B03901B
:102710000198384401900298A04205DD0298001B00
:1027200002900098404400900BF101001FFA80FBDA
:10273000601C8345D8DD08B0BDE8F08F520B002047
:10274000F0B504460D4616461F462B46324629462E
:102750002046FFF799FF3B46224629462046FFF7D1
:1027600093FF3B46324639462046FFF78DFF3B46F6
:10277000324629463046FFF787FFF0BD70B5044664
:102780000D4616465B48808849F24131884205D0A3
:102790005848808845F21031884214D155494889FB
:1027A00000F0BCFF201200F0ADFFE0B200F0AAFF85
:1027B0005049888900F0B2FF281200F0A3FFE8B268
:1027C00000F0A0FF8CE04B48808845F21051884211
:1027D00020D14849488900F0A1FF201200F092FF63
:1027E00044494989491C88B200F098FFE0B200F0E2
:1027F00089FF4049888900F091FF281200F082FF8C
:102800003C498989491C88B200F088FFE8B200F091
:1028100079FF65E03748808841F66311884228D106
:102820003448807920B933480088401E001B84B2A8
:102830003049488900F072FF201200F063FFE0B2D7
:1028400000F060FF201200F05DFFE0B200F05AFFE0
:102850002849888900F062FF281200F053FFE8B28F
:1028600000F050FF281200F04DFFE8B200F04AFFE0
:1028700036E02048808846F6040188421DD11D4874
:102880008079012804D11B480088401E001B84B2B7
:102890001849488900F042FF201200F033FFE0B2EF
:1028A00000F030FF1349888900F038FF281200F04B
:1028B00029FFE8B200F026FF12E00E4880790128D7
:1028C00004D10C480088401E001B84B20949488985
:1028D000214600F039FF07498889294600F034FF76
:1028E00004480089044908804FF0D840A0F880606F
:1028F00070BD0000505100207E00006C2DE9FC4F9F
:1029000005460E4617469846DDF82C9000200190AB
:102910002748808846F60401884229D124488079D6
:10292000012825D1AB46354621480088C01B401EF2
:1029300086B247461E480088A0EB0B00401E1FFAD7
:1029400080F800201A4988712A2048812B2088812C
:1029500043463A4631462846CDF80090FFF7CEFF71
:102960000120134988712B2048812A2088811DE08D
:10297000781B401C80B20190344615E02146284661
:1029800000F096FA00F0D6FE4FF0000A07E04FF094
:10299000D840A0F880900AF101001FFA80FA01984F
:1029A0008245F4DB601C84B24445E7DDBDE8FC8F62
:1029B0005051002010B50246012000E050430B1E8C
:1029C000A1F10104E1B2F9D110BD000008B503483E
:1029D00000880090BDF8000008BD00008000006C79
:1029E0002DE9F04105460E4600240027A046564832
:1029F0000088A84203DD54484088B04202DC002031
:102A0000BDE8F0813146284600F052FA4E488088F1
:102A100049F24131884211D04B48808846F6040182
:102A200088420BD04848808845F21031884205D052
:102A30004548808841F66311884203D12E2000F07A
:102A40006DFE0DE04048808845F21051884204D167
:102A50004FF4385000F062FE02E0222000F05EFEEB
:102A60003948808849F22031884202D1022006F09C
:102A700021FBFFF7ABFF04463348808841F6631122
:102A8000884201D12046BBE7022006F013FBFFF786
:102A90009DFF04462C48808849F2413188420BD082
:102AA0002948808845F21031884205D02648808820
:102AB00045F2105188420AD1022006F0FBFAFFF7D6
:102AC00085FF8046E7B24FF6FF7000EA07271E48F1
:102AD000808849F22531884216D01B48808844F20C
:102AE0003551884210D018488088091F88420BD081
:102AF000154880884BF20551884205D012488088DD
:102B00004CF20551884201D1204679E70E48808871
:102B100049F2413188420BD00B48808845F2103190
:102B2000884205D00848808845F21051884207D174
:102B3000E012C002B91240EA411040EAE8205FE723
:102B40002046FFF7B1FB5BE75051002010B504466B
:102B5000204600F0E3FD052006F016F9FFF736FFEA
:102B600010BD000070B52DED048B0446BE2000F0B2
:102B7000D5FD052000F0C6FD204606F02AFE41ECFA
:102B8000190B9FED0E0B53EC102B06F0B7FE41EC2A
:102B9000180B06F089FD85B2284600F0B3FD012030
:102BA00000F0B0FDFF2000F0ADFD002000F0AAFD18
:102BB000002000F0A7FDBDEC048B70BD6666666664
:102BC00066660440F0B5054600240027B7488079C2
:102BD00001280BD1B548808846F60401884205D00B
:102BE000B248808841F66311884208D1AF488079A5
:102BF000F0B9AE48808841F66311884218D1082D9B
:102C000015D2DFE805F00406080A0C0E101206259E
:102C10000DE007250BE0042509E0052507E0012567
:102C200005E0002503E0032501E0022500BF00BF09
:102C30009E48808849F24131884217D09B4880885D
:102C400046F60401884211D09848808845F2103138
:102C500088420BD09548808845F21051884205D0B3
:102C60009248808841F6631188427DD1082D1CD29C
:102C7000DFE805F00406090C0F12151800BF14E078
:102C800044F0800411E044F040040EE044F0C0043D
:102C90000BE044F0200408E044F0600405E044F058
:102CA000A00402E044F0E00400BF00BF7F48808839
:102CB00045F21051884202D14FF4585700E03627B0
:102CC0007A48808845F2103188420DD07748808854
:102CD00045F21051884207D07448808841F663114C
:102CE000884201D044F008047048808846F6040108
:102CF000884201D144F002042146384600F024FD08
:102D00006A48808841F6631188421DD004F0200093
:102D100068B16648008865494988884214DA634882
:102D20000688408861490880084646800CE05F4874
:102D300000885E494988884206DD5C4806884088EC
:102D40005A490880084646805848808845F2105104
:102D5000884254D15549488900F0E0FC002000F039
:102D6000D1FC5249498900E078E0491C88B200F062
:102D7000D5FC002000F0C6FC4C494989891C88B26A
:102D800000F0CCFC49490988491EC1F30F2000F02E
:102D9000B9FC46494989C91C88B200F0BFFC4349C7
:102DA0000978491EC8B200F0ADFC4049888900F09E
:102DB000B5FC002000F0A6FC3C498989491C88B27A
:102DC00000F0ACFC002000F09DFC38498989891C8A
:102DD00088B200F0A3FC35494988491EC1F30F2091
:102DE00000F090FC31498989C91C88B200F096FC3A
:102DF0002E498978491EC8B200F084FC55E02B4961
:102E0000488900F08BFC002000F07CFC002000F0E2
:102E100079FC26490988491EC1F30F2000F072FC95
:102E200022490978491EC8B200F06CFC1F49888904
:102E300000F074FC002000F065FC002000F062FC53
:102E40001A494988491EC1F30F2000F05BFC17495D
:102E50008978491EC8B200F055FC26E0082D1CD226
:102E6000DFE805F004070A0D0F12151844F03004CE
:102E700013E044F0100410E044F020040DE000BF23
:102E80000BE044F0380408E044F0280405E044F086
:102E9000180402E044F0080400BF00BF032744F414
:102EA00080542146384600F04FFCF0BD50510020C0
:102EB00030B504460D466748808849F24131884262
:102EC00005D06448808845F21031884214D16149A8
:102ED000488900F023FC201200F014FCE0B200F05E
:102EE00011FC5C49888900F019FC281200F00AFCEA
:102EF000E8B200F007FCABE05648808846F60401D3
:102F000088421DD153488079012804D15148008856
:102F1000401E001B84B24F49488900F0FFFB20127D
:102F200000F0F0FBE0B200F0EDFB4A49888900F0C8
:102F3000F5FB281200F0E6FBE8B200F0E3FB87E0C7
:102F40004448808841F66311884247D141488079DE
:102F5000A8B940480088401E001B84B23D494889FA
:102F600000F0DCFB002000F0CDFB002000F0CAFBED
:102F7000201200F0C7FBE0B200F0C4FB16E03549B8
:102F8000488900F0CBFB201200F0BCFBE0B200F05F
:102F9000B9FB30490988491EC1F30F2000F0B2FB8C
:102FA0002C490978491EC8B200F0ACFB2949888930
:102FB00000F0B4FB281200F0A5FBE8B200F0A2FB81
:102FC00024494988491EC1F30F2000F09BFB214989
:102FD0008978491EC8B200F095FB39E01D48808809
:102FE00045F21051884220D11A49488900F096FBD9
:102FF000201200F087FB17494989491C88B200F06C
:103000008DFBE0B200F07EFB1249888900F086FB60
:10301000281200F077FB0F498989491C88B200F01B
:103020007DFBE8B200F06EFB12E00A4880790128CF
:1030300004D108480088401E001B84B20549488915
:10304000214600F081FB03498889294600F07CFB7A
:1030500030BD0000505100202DE9F04F86B00446ED
:103060000D469046994604EB0800401E86B205EBDB
:103070000900401E87B27C48808849F2413188426D
:1030800015D07948808845F2103188420FD07648B3
:10309000808846F60401884209D073488079012867
:1030A00026D17148808841F66311884220D16E494B
:1030B000488900F033FB201200F024FBE0B200F05E
:1030C00021FB301200F01EFBF0B200F01BFB664942
:1030D000888900F023FB281200F014FBE8B200F00E
:1030E00011FB381200F00EFBF8B200F00BFBB8E059
:1030F0005D48808841F66311884234D15A4800887F
:10310000A0EB0800001B84B205EB0900401E1FFA6B
:1031100080F95549488900F001FB201200F0F2FACD
:10312000E0B200F0EFFA04EB0801491EC1F30F20F2
:1031300000F0E8FA04EB0801491EC8B200F0E2FA18
:103140004949888900F0EAFA281200F0DBFAE8B26F
:1031500000F0D8FA4FEA292000F0D4FA09F0FF0075
:1031600000F0D0FA7DE04048808845F21051884256
:1031700044D13D49488900F0D1FA201200F0C2FA4A
:1031800039494989491C88B200F0C8FAE0B200F018
:10319000B9FA35494989891C88B200F0BFFA301262
:1031A00000F0B0FA30494989C91C88B200F0B6FA7B
:1031B000F0B200F0A7FA2C49888900F0AFFA281283
:1031C00000F0A0FA28498989491C88B200F0A6FAC3
:1031D000E8B200F097FA24498989891C88B200F086
:1031E0009DFA381200F08EFA1F498989C91C88B2ED
:1031F00000F094FAF8B200F085FA32E01A488079CB
:1032000001280ED1AA46BB4617480088801B401EE5
:1032100080B2019014480088001B401E80B20090CC
:1032200003E0A246B3460195009750200590512037
:10323000049052200390532002905146059800F0CC
:1032400083FA5946049800F07FFA0199039800F038
:103250007BFA0099029800F077FA29462046FFF79A
:1032600027FE06B0BDE8F08F505100202DE9F84F41
:1032700080460F4616461C46BB462046E31704EB25
:103280005373DB1021464FEAE47C04EB5C7C4FEA8D
:10329000EC0CA4EBCC0CBCF1000F02D04FF0010CF5
:1032A00001E04FF0000C6344224604EBD27C4FEA6D
:1032B0006C0C03FB0CF3DBB20093A6F12000C6B24A
:1032C000002560E00C2C07D106EB4600304901EBED
:1032D000800010F805901DE0102C05D12D4800EB62
:1032E000061010F8059015E0182C07D106EBC60063
:1032F000294901EB800010F805900BE0302C07D134
:1033000006EBC600254901EB001010F8059001E01E
:10331000BDE8F88F4FF0000A2FE009F0800030B1CF
:103320001F48028839464046FFF728FA07E00A9806
:1033300028B91C48028839464046FFF71FFA4FEA71
:1033400049604FEA1069781C87B217484088B84234
:1033500000DCDDE7A7EB0B00A0420AD15F4608F1D5
:1033600001001FFA80F810480088404500DCCFE7D4
:1033700006E00AF1010000F0FF0ABAF1080FCCDB09
:1033800000BF681CC5B2009885429BDB00BFBFE749
:103390005CA00008D0A40008C0AA00081CB800085F
:1033A000520B0020540B0020505100202DE9FF5FEC
:1033B0002DED020B2DED0E8BA4B0B0EE408AF0EE99
:1033C000608A429D0026B14600202390369888B935
:1033D00051EC180B06F068F9009502900246379BF5
:1033E000DDE9340100F010F924B0BDEC0E8B06B01D
:1033F000BDE8F09F9FED800B53EC102B51EC180BA8
:1034000006F040FA2ED2012651EC180B05F0F8FE1A
:1034100006F0E0FD074688460A203699FFF7CAFA0B
:10342000029006F0D6F941EC1A0B3846414606F0F8
:10343000E3F99FED730B53EC102B06F05FFA41ECB0
:103440001C0B51EC180B05F0DBFE53EC1C2B06F0AB
:1034500061FC53EC1A2B06F051FA06F0BBFD8246D4
:103460008B4624E051EC180B06F0B4FD0746884665
:103470000A203699FFF79EFA029006F0AAF941EC6D
:103480001A0B3846414606F0B7F99FED5D0B53EC39
:10349000102B06F033FA53EC182B06F063FB53ECB9
:1034A0001A2B06F02BFA06F095FD82468B4600BFDC
:1034B0000A22002338464146FCF7F7FE4846411CE5
:1034C00001F0FF0913A90A540A2200233846414695
:1034D000FCF7EBFE07468846002187EA010088EAF0
:1034E00001010843E4D1239015E00A22002350464D
:1034F0005946FCF7DAFED1B203AA239811540A22E6
:10350000002350465946FCF7D0FE82468B4623984E
:10351000401CC0B22390369923988842E5DB3EB127
:1035200000202B462D220090DDE93401FFF79EFE9E
:1035300034465CE009EB0600A04216DD0020A9F14C
:103540000101A31BC91A13AB0090595C3031CAB2F8
:1035500005EBD5714B100295349903FB041188B229
:103560002B463599FFF782FE3FE009EB0600A042AB
:103570000FD1002005EBD5714A10029500903499C7
:1035800002FB041188B22B462E223599FFF76EFEFE
:103590002BE023984844401C3044A04216DD002014
:1035A000009023994944A31BC91A03AB595C3031DD
:1035B000CAB205EBD5714B100295349903FB041187
:1035C00088B22B463599FFF751FE0EE0002005EB3F
:1035D000D5714A1002950090349902FB041188B20B
:1035E0002B4620223599FFF741FE601CC4B2379864
:1035F00084429FDB00BFF7E60000000000000000EF
:10360000000000000000F03F2DE9FF4F81B00746A9
:1036100091461E460E9D4FF0000A002439E0301BF3
:10362000401EC1B20A20FFF7C5F9B9FBF0F00A212C
:10363000B0FBF1F201FB1208BAF1000F16D1701EB7
:10364000A04213DDB8F1000F0ED10020AB4605EB10
:10365000DB71491001FB0471009088B22B462022D7
:103660000299FFF703FE12E04FF0010A0020AB467B
:1036700005EBDB71491001FB0471009088B208F181
:103680003001CAB22B460299FFF7F0FD00BF601C63
:10369000C4B2B442C3DB05B0BDE8F08F2DE9F84FEA
:1036A00004460D4690469946DDE90B7A0A9E04F0E1
:1036B000FF0B08EB04001FFA80F809EB05001FFA66
:1036C00080F916E0444502DB5C46A81985B24D45F9
:1036D00000DB14E0CDF800A03A78334629462046B6
:1036E000FFF7C4FD304606EBD07104EB61018CB2EC
:1036F0007F1C38787E2802DC38782028E2DA00BF88
:10370000BDE8F88F01B5BDF800000090BDF80000DD
:103710000149088008BD00008000006C01B5BDF8BB
:1037200000000090BDF800000149088008BD0000BD
:103730007E00006C02480089024908807047000042
:10374000505100207E00006C034A10804FF0D84298
:10375000A2F88010704700007E00006C2DE9FE4149
:1037600004460D46A38C608C40F21F320021FEF708
:10377000E7FFA68C06EBD67C4FEA6C03678C07EB61
:10378000D77C4FEA6C0C0CF5C87C1FFA8CF2B04663
:1037900006EBD87C4FEA6C0107F10A0C1FFA8CF09B
:1037A000FEF772FF00201821CDE900150290A68CCB
:1037B00006EBD67252100C3A91B2678C07EBD772B7
:1037C000521002F5CD7290B218233C22FFF766FF2B
:1037D000BDE8FE8100BFFEE77047000070B5002124
:1037E00000230F22C4781CB3174C246804F4E0644F
:1037F000C4F5E064C4F30721C1F10404E3B20A4153
:1038000044789C40E1B28478144021430C07210E97
:103810000E4C05786155047804F01F050124AC4076
:1038200005786D11AD0005F1E025C5F8004109E00E
:10383000047804F01F050124AC40054D067876118C
:1038400045F8264070BD00000CED00E000E400E00B
:1038500080E100E002490143024A11607047000024
:103860000000FA050CED00E07047000070B52DED8A
:103870000E8B04460D46B0EE408AF0EE608AB0EE44
:10388000419AF0EE619A9FED320BB0EE40AAF0EE55
:1038900060AA04F6A84000EBC50090ED001BB0EE56
:1038A000410AF0EE610A53EC102B51EC180B06F0B4
:1038B00031FA41EC1B0B41F62810204400EBC50007
:1038C00090ED001BB0EE410AF0EE610A53EC102BB4
:1038D00051EC190B06F01EFA41EC1C0B53EC1B2BA0
:1038E00051EC1C0B05F04CFD41EC1D0BB0EE4D0AEC
:1038F000F0EE6D0A04F024FD43F22820204400EB92
:10390000C50080ED000B43F22820204400EBC500E9
:1039100090ED001BB0EE410AF0EE610A53EC102B63
:1039200051EC1A0B05F0EAFF41EC1E0B9FED0A0B60
:1039300053EC102B06F016F941EC1D0B05F0B4FE0C
:1039400044F2C811214421F81500BDEC0E8B70BD66
:10395000000000E08CDF57400000000000006E40D7
:103960002DE9F0472DED0A8B84B004460F469046B2
:10397000B4F8580005F02DFF41EC1A0B94ED0A2B1A
:10398000B0EE420AF0EE620A94ED0C2BB0EE421A51
:10399000F0EE621A53EC102B51EC110B06F0BAF951
:1039A00041EC1B0B53EC1A2B05F0EAFC41EC180B15
:1039B000B4F85A0005F00DFF41EC1A0B94ED0E2BF4
:1039C000B0EE420AF0EE620A94ED102BB0EE421A0D
:1039D000F0EE621A53EC102B51EC110B06F09AF931
:1039E00041EC1B0B53EC1A2B05F0CAFC41EC190BF4
:1039F000A088B4F8581090FBF1F01FFA80F9E08825
:103A0000B4F85A1090FBF1F01FFA80FAA760C4F8DE
:103A10000C8094ED0A2BB0EE420AF0EE620A94EDAF
:103A20000C2BB0EE421AF0EE621A53EC102B51EC54
:103A3000110B06F06FF941EC1A0BA08805F0C9FED6
:103A400041EC1B0B53EC1A2B05F09AFCC4E918014E
:103A500094ED0E2BB0EE420AF0EE620A94ED102BBC
:103A6000B0EE421AF0EE621A53EC102B51EC110B2F
:103A700006F050F941EC1A0BE08805F0AAFE41EC83
:103A80001B0B53EC1A2B05F07BFCC4E91A01E38CE9
:103A9000628C1946208CFEF7F7FDA38C628C1946C8
:103AA000208CFEF7F1FD002629E0304605F091FE5E
:103AB00041EC1C0B53EC182B05F020FF41EC1B0BC9
:103AC00094ED0A1BB0EE410AF0EE610A53EC102BA4
:103AD00005F0A2FB41EC1A0B18200090228C06FB8B
:103AE000092290B2E28C921C91B205230122B0EE21
:103AF0004A0AF0EE6A0AFFF759FC701C86B2B4F865
:103B00005800B042D1DAE38C228CA18C1046FEF72B
:103B1000BBFDE38C628CA18C1046FEF7B5FD002541
:103B200029E0284605F055FE41EC1C0B53EC192BFF
:103B300005F0E4FE41EC1B0B94ED0E1BB0EE410AC8
:103B4000F0EE610A53EC102B05F066FB41EC1A0B0A
:103B500018200090E28C05FB1A2291B2228C603A68
:103B600090B208230222B0EE4A0AF0EE6A0AFFF78A
:103B70001DFC681C85B2B4F85A00A842D1DA0021B5
:103B80001822A068CDE900200291228CA38802EBC4
:103B9000630290B2E28C183291B21823F022FFF740
:103BA0007DFD00211822E068CDE900200291A28C61
:103BB000183A91B2228C90B21823F022FFF76EFDD2
:103BC00004B0BDEC0A8BBDE8F0872DE9F04F2DED78
:103BD0000C8B83B004460F4690469946B4F85800C3
:103BE00005F0F7FD41EC1B0B94ED0A2BB0EE420AF9
:103BF000F0EE620A94ED0C2BB0EE421AF0EE621A6F
:103C000053EC102B51EC110B06F084F841EC1C0B1B
:103C100053EC1B2B05F0B4FB41EC180BB4F85A0025
:103C200005F0D7FD41EC1B0B94ED0E2BB0EE420AD4
:103C3000F0EE620A94ED102BB0EE421AF0EE621A2A
:103C400053EC102B51EC110B06F064F841EC1C0BFB
:103C500053EC1B2B05F094FB41EC190BB4F85A0004
:103C600005F0B7FD41EC1B0B94ED122BB0EE420AB0
:103C7000F0EE620A94ED142BB0EE421AF0EE621AE6
:103C800053EC102B51EC110B06F044F841EC1C0BDB
:103C900053EC1B2B05F074FB41EC1A0BA088B4F815
:103CA000581090FBF1F01FFA80FBE088B4F85A102E
:103CB00090FBF1F01FFA80FAA760C4F80C80C4F8FA
:103CC000109094ED0A2BB0EE420AF0EE620A94EDE9
:103CD0000C2BB0EE421AF0EE621A53EC102B51ECA2
:103CE000110B06F017F841EC1B0BA08805F071FDD5
:103CF00041EC1C0B53EC1B2B05F042FBC4E91801F3
:103D000094ED0E2BB0EE420AF0EE620A94ED102B09
:103D1000B0EE421AF0EE621A53EC102B51EC110B7C
:103D200005F0F8FF41EC1B0BE08805F052FD41EC7B
:103D30001C0B53EC1B2B05F023FBC4E91A0194ED7B
:103D4000122BB0EE420AF0EE620A94ED142BB0EEA4
:103D5000421AF0EE621A53EC102B51EC110B05F0E5
:103D6000D9FF41EC1B0BE08805F033FD41EC1C0B47
:103D700053EC1B2B05F004FBC4E91C01E38C628CA3
:103D80001946208CFEF780FCA38C628C1946208C8F
:103D9000FEF77AFC002629E0304605F01AFD41ECDA
:103DA0001D0B53EC182B05F0A9FD41EC1C0B94EDF9
:103DB0000A1BB0EE410AF0EE610A53EC102B05F03D
:103DC0002BFA41EC1B0B18200090228C06FB0B22D7
:103DD00090B2E28C921C91B205230122B0EE4B0A04
:103DE000F0EE6B0AFFF7E2FA701C86B2B4F85800E6
:103DF000B042D1DAE38C228CA18C1046FEF744FC51
:103E0000E38C628CA18C1046FEF73EFC002529E075
:103E1000284605F0DEFC41EC1D0B53EC192B05F098
:103E20006DFD41EC1C0B94ED0E1BB0EE410AF0EE63
:103E3000610A53EC102B05F0EFF941EC1B0B182035
:103E40000090E28C05FB1A2291B2228C603A90B26B
:103E500008230222B0EE4B0AF0EE6B0AFFF7A6FA37
:103E6000681C85B2B4F85A00A842D1DA002529E0CE
:103E7000284605F0AEFC41EC1D0B53EC1A2B05F067
:103E80003DFD41EC1C0B94ED121BB0EE410AF0EE2F
:103E9000610A53EC102B05F0BFF941EC1B0B182005
:103EA0000090E28C05FB1A2291B2628C921C90B2B7
:103EB00008230222B0EE4B0AF0EE6B0AFFF776FA07
:103EC000681C85B2B4F85A00A842D1DA0021182241
:103ED000A068CDE900200291228CA38802EB630246
:103EE00090B2E28C183291B21823F022FFF7D6FB81
:103EF00000211822E068CDE900200291A28C183A36
:103F000091B2228C90B21823F022FFF7C7FB002158
:103F100018222069CDE900200291A28C183A91B2B2
:103F2000608C1823F022FFF7B9FB03B0BDEC0C8BBB
:103F3000BDE8F08F7047000029B1064A12680243BD
:103F4000044B1A6004E0034A12688243014B1A6072
:103F5000704700003038024029B1064A1268024317
:103F6000044B1A6004E0034A12688243014B1A6052
:103F7000704700003838024029B1064A12680243EF
:103F8000044B1A6004E0034A12688243014B1A6032
:103F90007047000040380240F0B5002100220024A4
:103FA000022500260223324F3F6807F00C0121B1A1
:103FB000042905D0082937D105E02E4F076036E0E7
:103FC0002D4F076033E02A4F3F1F3F68C7F38056ED
:103FD000274F3F1F3F6807F03F036EB1264FB7FBE7
:103FE000F3F7DFF88CC0ACF1040CDCF800C0CCF3C4
:103FF000881C07FB0CF40CE01E4FB7FBF3F7DFF84F
:1040000070C0ACF1040CDCF800C0CCF3881C07FBDA
:104010000CF4174F3F1F3F68C7F301477F1C7D001B
:10402000B4FBF5F7076002E0124F076000BF00BF66
:104030000F4F3F6807F0F0010909104F7A5C0768DD
:10404000D74047600A4F3F6807F4E051890A0B4F99
:104050007A5C4768D7408760054F3F6807F4604146
:10406000490B064F7A5C4768D740C760F0BD000037
:10407000083802400024F40040787D01640B0020E1
:1040800010B500F003F8FCF7E9FC10BD10B588B0DE
:10409000002400BF0FE00020694601EBC401087155
:1040A0000320694601EBC40148710120694601EB18
:1040B000C401C871641C042CEDDB802000904020FA
:1040C0000290202004901020069069460848FDF7D1
:1040D0004CF802A90648FDF748F804A90448FDF782
:1040E00044F806A90248FDF740F808B010BD0000EA
:1040F0000004024010B5FCF77BFC00F001F810BD95
:1041000010B588B0002400BF14E00120694601EB1F
:10411000C40108710320694601EBC4014871002005
:10412000694601EBC40188710220694601EBC401B4
:10413000C871641C042CE8DB8020009040200290B1
:10414000202004901020069069461048FDF70DF8D5
:1041500002A90E48FDF709F804A90C48FDF705F877
:1041600006A90A48FDF701F880210848FDF771F813
:1041700040210648FDF76DF820210448FDF769F855
:1041800010210248FDF765F808B010BD0004024098
:1041900070B5002580216248FDF752F878B14021C2
:1041A0005F48FDF74DF850B120215D48FDF748F814
:1041B00028B110215A48FDF743F800287DD14FF46B
:1041C0007A7004F0E1FD80215548FDF739F878B1A7
:1041D00040215348FDF734F850B120215048FDF7F5
:1041E0002FF828B110214E48FDF72AF80028E5D114
:1041F00003F074FE0546FFF77DFFFFF77BFF6420A9
:1042000004F0C2FD03F03CFE0543D72D34D012DC90
:10421000B72D29D008DC772D1ED07B2D1ED07D2D0B
:104220001ED07E2D38D11DE0BB2D1FD0BD2D1FD03F
:10423000BE2D31D11EE0E72D26D006DCDB2D1DD0B2
:10424000DD2D1DD0DE2D27D11CE0EB2D1ED0ED2D58
:104250001ED0EE2D20D11DE001241EE002241CE022
:1042600003241AE00A2418E0042416E0052414E0CC
:10427000062412E00B2410E007240EE008240CE0D2
:1042800009240AE00C2408E00D2406E0002404E0E0
:104290000E2402E00F2400E000BF00BF00BF082191
:1042A0001F48FCF7CDFF0028F9D04FF400411D480E
:1042B000FCF7C6FF0028F2D000E02CE04FF480416C
:1042C0001848FCF7BDFF0028E9D04FF4005115480D
:1042D000FCF7B6FF0028E2D0052004F055FD00BF32
:1042E00008210F48FCF7ACFF0028F9D04FF400413B
:1042F0000C48FCF7A5FF0028F2D04FF48041094894
:10430000FCF79EFF0028EBD04FF400510548FCF766
:1043100097FF0028E4D0FFF7B3FE204670BD0000F1
:104320000004024000180240704770470CB500209E
:10433000019000903448006840F4803032490860B1
:1043400000BF3148006800F4003000900198401C24
:104350000190009818B90198B0F5A04FF1D12A4802
:10436000006800F4003010B10120009001E000204E
:1043700000900098012846D123484030006840F062
:1043800080502149403108602048006840F4404096
:104390001E4908601C48083000681B490831086045
:1043A0000846006840F4004008600846006840F491
:1043B000A05008601648091F0860081F006840F0F8
:1043C0008070091F086000BF0F48006800F000708F
:1043D0000028F9D040F205700E4908600A480830FC
:1043E000006820F0030008490831086008460068AA
:1043F00040F00200086000BF03480830006800F089
:104400000C000828F8D10CBD0038024000700040B4
:1044100019544007003C024010B50146CB8808689B
:1044200010F813208888401E002801D50A2010BDEE
:104430000A20CC880B6803F814008888401E888006
:10444000C888401EC8801046F1E702469088401C8C
:104450000A2801DD00207047D088401CD080908859
:10446000401C9080D388106800F813100120F2E7F8
:10447000042808D14FF0E021096941F004014FF010
:10448000E022116107E04FF0E021096921F0040109
:104490004FF0E022116170477047000010B51548D9
:1044A000006840F47000134908601348006840F049
:1044B00001001149086000200F49083108600E48CA
:1044C00000680E4908400C4908600D48091D086045
:1044D000081F006820F48020091F0860002006499A
:1044E0000C310860FFF722FF4FF00060014980396E
:1044F000086010BD88ED00E000380240FFFFF6FEC6
:104500001030002400B5A1B00020209001217A20B5
:10451000FFF712FD01210846FFF71EFD4FF4004092
:104520001E9001208DF87C0000208DF87E00022076
:104530008DF87D0001208DF87F001EA9FE48FCF754
:1045400014FE4CF233701E9002208DF87C00002087
:104550008DF87E0003208DF87D0001208DF87F000E
:104560001EA9F648FCF701FE4FF680701E9002204F
:104570008DF87C0000208DF87E0003208DF87D00F2
:1045800001208DF87F001EA9ED48FCF7EEFD4FF4E9
:1045900080501E9002208DF87C0000208DF87E0057
:1045A00003208DF87D0001208DF87F001EA9E548CD
:1045B000FCF7DBFD4FF480501E9002208DF87C004C
:1045C00000208DF87E0003208DF87D0001208DF8FD
:1045D0007F001EA9DC48FCF7C8FD0C220021D7484B
:1045E000FCF70BFE0C220121D448FCF706FE0C223E
:1045F0000421D248FCF701FE0C220521CF48FCF72C
:10460000FCFD0C220821CD48FCF7F7FD0C22092106
:10461000CA48FCF7F2FD0C220A21C848FCF7EDFD60
:104620000C220E21C548FCF7E8FD0C220F21C348DF
:10463000FCF7E3FD0C220721C148FCF7DEFD0C224C
:104640000821BF48FCF7D9FD0C220921BC48FCF722
:10465000D4FD0C220A21BA48FCF7CFFD0C220B2115
:10466000B748FCF7CAFD0C221146B548FCF7C5FD5A
:104670000C220D21B248FCF7C0FD0C220E21B048DF
:10468000FCF7BBFD0C220F21AD48FCF7B6FD0C2258
:104690001146AC48FCF7B1FD0C221146AA48FCF7C4
:1046A000ACFD0F200890002009903C200A900020CB
:1046B0000B900C900D900E9009200190002002901C
:1046C0000820039000200490059006900790062093
:1046D0000F90002010901190102012900020139045
:1046E00015901490169017904FF480501890002059
:1046F00019904FF480401A9000201B9008A81C903D
:1047000001A81D900FA8FCF7BDFC01210620FCF7B5
:104710009FFC04F001FD02218B48FCF79CFD0A2060
:1047200004F016FB02218848FCF793FD0A2004F0F0
:104730000FFB02218448FCF78EFD322004F008FBB9
:1047400001210020FFF700F8322004F001FB0020D7
:10475000FEF7FCF97D49888008468088FF280ADB3F
:10476000084680884FF6FF71884204D077488088D9
:10477000B0F5134F7ED1D320FEF7D0FFFEF726F918
:1047800072498880FEF722F970498880FEF71EF989
:104790006E498880084680884FF6FF7101EA002044
:1047A0006A498880FEF712F9684989880843674991
:1047B00088800846808849F2413188425AD0BF201B
:1047C000FEF7ACFFFEF702F960498880FEF7FEF8BD
:1047D0005E498880FEF7FAF85C498880FEF7F6F8B3
:1047E0005A498880084680884FF6FF7101EA002008
:1047F00056498880FEF7EAF85449898808435349A6
:1048000088800846808846F6040188427AD0D42001
:10481000FEF784FFFEF7DAF84C498880FEF7D6F8F9
:104820004A498880FEF7D2F848498880084680883F
:104830004FF6FF7101EA002044498880FEF7C6F870
:10484000424989880843414988800846808845F262
:104850001031884256D04FF45A40FEF75FFFFEF702
:10486000B5F83A4988804FF45B40FEF757FFFEF7F2
:10487000ADF800E046E035498880084680884FF66C
:10488000FF7101EA0020314988804FF45C40FEF757
:1048900045FFFEF79BF82D49898808432B498880FE
:1048A00008468088B0F5004F02D145F2105088804C
:1048B0002648808845F21051884223D0A120FEF777
:1048C0002DFFFEF783F821498880FEF77FF81F4906
:1048D0008880084680884FF6FF7101EA00201B4956
:1048E0008880FEF773F8194989880843174988803A
:1048F0000846808845F26171884203D141F6631011
:10490000124988801148808849F24131884211D08B
:104910000E48808845F2103188420BD00B488088C1
:1049200045F21051884205D00848808841F663114D
:1049300088422CD106480DE000040240000C0240E1
:1049400000100240001402400018024050510020A4
:104950001C0100A0006820F00F004FF02041C1F8BA
:104960001C010846D0F81C0120F47060C1F81C013D
:104970000846D0F81C0140F00300C1F81C010846AD
:10498000D0F81C0140F40070C1F81C0128E0FC487C
:10499000808846F60401884205D0F94880884CF2A8
:1049A000055188421CD1F748006820F00F004FF0F5
:1049B0002041C1F81C010846D0F81C0120F47060A9
:1049C000C1F81C010846D0F81C0140F00A00C1F8EB
:1049D0001C010846D0F81C0140F44060C1F81C01DD
:1049E000E748808849F2413188427CD1CF20FEF7E8
:1049F00095FE0020FEF786FEC120FEF783FE3020E4
:104A0000FEF780FEED20FEF789FE6420FEF77AFEB9
:104A10000320FEF777FE1220FEF774FE8120FEF7DA
:104A200071FEE820FEF77AFE8520FEF76BFE10206F
:104A3000FEF768FE7A20FEF765FECB20FEF76EFEDD
:104A40003920FEF75FFE2C20FEF75CFE0020FEF70B
:104A500059FE3420FEF756FE0220FEF753FEF720E3
:104A6000FEF75CFE2020FEF74DFEEA20FEF756FE24
:104A70000020FEF747FE0020FEF744FEC020FEF7B0
:104A80004DFE1B20FEF73EFEC120FEF747FE012033
:104A9000FEF738FEC520FEF741FE3020FEF732FE5D
:104AA0003020FEF72FFEC720FEF738FEB720FEF7B6
:104AB00029FE3620FEF732FE4820FEF723FE3A207C
:104AC000FEF72CFE5520FEF71DFEB120FEF726FE58
:104AD0000020FEF717FE1A20FEF714FEB620FEF7A0
:104AE0001DFE0A2000E099E0FEF70CFEA220FEF772
:104AF00009FEF220FEF712FE0020FEF703FE26203C
:104B0000FEF70CFE0120FEF7FDFDE020FEF706FE9D
:104B10000F20FEF7F7FD2A20FEF7F4FD2820FEF710
:104B2000F1FD0820FEF7EEFD0E20FEF7EBFD08205C
:104B3000FEF7E8FD5420FEF7E5FDA920FEF7E2FDB3
:104B40004320FEF7DFFD0A20FEF7DCFD0F20FEF715
:104B5000D9FD0020FEF7D6FD0020FEF7D3FD002092
:104B6000FEF7D0FD0020FEF7CDFDE120FEF7D6FDDB
:104B70000020FEF7C7FD1520FEF7C4FD1720FEF745
:104B8000C1FD0720FEF7BEFD1120FEF7BBFD06208C
:104B9000FEF7B8FD2B20FEF7B5FD5620FEF7B2FD5F
:104BA0003C20FEF7AFFD0520FEF7ACFD1020FEF720
:104BB000A9FD0F20FEF7A6FD3F20FEF7A3FD3F2035
:104BC000FEF7A0FD0F20FEF79DFD2B20FEF7A6FDB2
:104BD0000020FEF797FD0020FEF794FD0120FEF770
:104BE00091FD3F20FEF78EFD2A20FEF797FD002065
:104BF000FEF788FD0020FEF785FD0020FEF782FD10
:104C0000EF20FEF77FFD1120FEF788FD782004F0ED
:104C10009FF82920FEF782FD03F022B958488088CA
:104C200046F6040188427CD11120FEF777FD14205E
:104C300004F08EF8D020FEF771FD0720FEF762FD2C
:104C40004220FEF75FFD1D20FEF75CFDD120FEF740
:104C500065FD0020FEF756FD1A20FEF753FD0920E2
:104C6000FEF750FDD220FEF759FD0120FEF74AFD68
:104C70002220FEF747FDC020FEF750FD1020FEF772
:104C800041FD3B20FEF73EFD0020FEF73BFD0220EC
:104C9000FEF738FD1120FEF735FDC520FEF73EFD7D
:104CA0000320FEF72FFDC820FEF738FD0020FEF799
:104CB00029FD2520FEF726FD2120FEF723FD0520F6
:104CC000FEF720FD0020FEF71DFD0A20FEF71AFD6D
:104CD0006520FEF717FD2520FEF714FD7720FEF76F
:104CE00011FD5020FEF70EFD0F20FEF70BFD0020FA
:104CF000FEF708FDF820FEF711FD0120FEF702FD8A
:104D0000FE20FEF70BFD0020FEF7FCFC0220FEF764
:104D1000F9FC2020FEF702FD3620FEF7FFFC0820FC
:104D200000E031E0FEF7EEFC3A20FEF7F7FC5520FC
:104D3000FEF7E8FC2B20FEF7F1FC0020FEF7E2FC7A
:104D40000020FEF7DFFC0120FEF7DCFC3F20FEF731
:104D5000D9FC2A20FEF7E2FC0020FEF7D3FC00205D
:104D6000FEF7D0FC0120FEF7CDFCDF20FEF7CAFCE9
:104D7000782003F0EDFF2920FEF7D0FC4CE700007F
:104D8000505100201C0100A0FE48808845F21031DF
:104D9000884240F07C87ED20FEF7C0FC0120FEF742
:104DA000B1FCFE20FEF7AEFCEE20FEF7B7FCDE20E5
:104DB000FEF7A8FC2120FEF7A5FCF120FEF7AEFCD3
:104DC0000120FEF79FFCDF20FEF7A8FC1020FEF775
:104DD00099FCC420FEF7A2FC8F20FEF793FCC620AE
:104DE000FEF79CFC0020FEF78DFCE220FEF78AFC1B
:104DF000E220FEF787FCE220FEF784FCBF20FEF7EE
:104E00008DFCAA20FEF77EFCB020FEF787FC0D206B
:104E1000FEF778FC0020FEF775FC0D20FEF772FC13
:104E20000020FEF76FFC1120FEF76CFC0020FEF75F
:104E300069FC1920FEF766FC0020FEF763FC2120C8
:104E4000FEF760FC0020FEF75DFC2D20FEF75AFC0B
:104E50000020FEF757FC3D20FEF754FC0020FEF733
:104E600051FC5D20FEF74EFC0020FEF74BFC5D2060
:104E7000FEF748FC0020FEF745FCB120FEF74EFC93
:104E80008020FEF73FFC0020FEF73CFC8B20FEF765
:104E900039FC0020FEF736FC9620FEF733FC00209C
:104EA000FEF730FCB220FEF739FC0020FEF72AFCAA
:104EB0000020FEF727FC0220FEF724FC0020FEF76E
:104EC00021FC0320FEF71EFC0020FEF71BFCB32094
:104ED000FEF724FC0020FEF715FC0020FEF712FC74
:104EE0000020FEF70FFC0020FEF70CFC0020FEF770
:104EF00009FC0020FEF706FC0020FEF703FC002062
:104F0000FEF700FC0020FEF7FDFB0020FEF7FAFB99
:104F10000020FEF7F7FB0020FEF7F4FB0020FEF771
:104F2000F1FB0020FEF7EEFB0020FEF7EBFB00207C
:104F3000FEF7E8FB0020FEF7E5FB0020FEF7E2FBB2
:104F40000020FEF7DFFB0020FEF7DCFB0020FEF771
:104F5000D9FB0020FEF7D6FB0020FEF7D3FB002094
:104F6000FEF7D0FBB420FEF7D9FB8B20FEF7CAFB7F
:104F70000020FEF7C7FB9620FEF7C4FB0020FEF7DB
:104F8000C1FBA120FEF7BEFB0020FEF7BBFBB52056
:104F9000FEF7C4FB0220FEF7B5FB0020FEF7B2FBD4
:104FA0000320FEF7AFFB0020FEF7ACFB0420FEF76A
:104FB000A9FB0020FEF7A6FBB620FEF7AFFB002002
:104FC000FEF7A0FB0020FEF79DFBB720FEF7A6FB37
:104FD0000020FEF797FB0020FEF794FB3F20FEF732
:104FE00091FB0020FEF78EFB5E20FEF78BFB00207E
:104FF000FEF788FB6420FEF785FB0020FEF782FBAE
:105000008C20FEF77FFB0020FEF77CFBAC20FEF738
:1050100079FB0020FEF776FBDC20FEF773FB002017
:10502000FEF770FB7020FEF76DFB0020FEF76AFBB9
:105030009020FEF767FB0020FEF764FBEB20FEF7F5
:1050400061FB0020FEF75EFBDC20FEF75BFB00202F
:10505000FEF758FBB820FEF761FB0020FEF752FB7D
:105060000020FEF74FFB0020FEF74CFB0020FEF770
:1050700049FB0020FEF746FB0020FEF743FB002023
:10508000FEF740FB0020FEF73DFBBA20FEF746FB93
:105090002420FEF737FB0020FEF734FB0020FEF74C
:1050A00031FB0020FEF72EFBC120FEF737FB20204E
:1050B000FEF728FB0020FEF725FB5420FEF722FB1D
:1050C0000020FEF71FFBFF20FEF71CFB0020FEF771
:1050D00019FBC220FEF722FB0A20FEF713FB00207B
:1050E000FEF710FB0420FEF70DFB0020FEF70AFB85
:1050F000C320FEF713FB3C20FEF704FB0020FEF765
:1051000001FB3A20FEF7FEFA0020FEF7FBFA3920F9
:10511000FEF7F8FA0020FEF7F5FA3720FEF7F2FA6C
:105120000020FEF7EFFA3C20FEF7ECFA0020FEF735
:10513000E9FA3620FEF7E6FA0020FEF7E3FA32201D
:10514000FEF7E0FA0020FEF7DDFA2F20FEF7DAFA8C
:105150000020FEF7D7FA2C20FEF7D4FA0020FEF745
:10516000D1FA2920FEF7CEFA0020FEF7CBFA26204E
:10517000FEF7C8FA0020FEF7C5FA2420FEF7C2FAAF
:10518000002001E050510020FEF7BCFA2420FEF779
:10519000B9FA0020FEF7B6FA2320FEF7B3FA002092
:1051A000FEF7B0FA3C20FEF7ADFA0020FEF7AAFAAF
:1051B0003620FEF7A7FA0020FEF7A4FA3220FEF709
:1051C000A1FA0020FEF79EFA2F20FEF79BFA00209E
:1051D000FEF798FA2C20FEF795FA0020FEF792FAD7
:1051E0002920FEF78FFA0020FEF78CFA2620FEF722
:1051F00089FA0020FEF786FA2420FEF783FA0020C1
:10520000FEF780FA2420FEF77DFA0020FEF77AFAF6
:105210002320FEF777FA0020FEF774FAC420FEF789
:105220007DFA6220FEF76EFA0020FEF76BFA052089
:10523000FEF768FA0020FEF765FA8420FEF762FAAE
:105240000020FEF75FFAF020FEF75CFA0020FEF780
:1052500059FA1820FEF756FA0020FEF753FAA42058
:10526000FEF750FA0020FEF74DFA1820FEF74AFA32
:105270000020FEF747FA5020FEF744FA0020FEF720
:1052800041FA0C20FEF73EFA0020FEF73BFA172009
:10529000FEF738FA0020FEF735FA9520FEF732FACD
:1052A0000020FEF72FFAF320FEF72CFA0020FEF77D
:1052B00029FAE620FEF726FA0020FEF723FAC52099
:1052C000FEF72CFA3220FEF71DFA0020FEF71AFA3C
:1052D0004420FEF717FA0020FEF714FA6520FEF7C7
:1052E00011FA0020FEF70EFA7620FEF70BFA0020E6
:1052F000FEF708FA8820FEF705FA0020FEF702FA0A
:10530000C620FEF70BFA2020FEF7FCF90020FEF77E
:10531000F9F91720FEF7F6F90020FEF7F3F901205E
:10532000FEF7F0F90020FEF7EDF9C720FEF7F6F9D9
:105330000020FEF7E7F90020FEF7E4F90020FEF771
:10534000E1F90020FEF7DEF9C820FEF7E7F90020BA
:10535000FEF7D8F90020FEF7D5F90020FEF7D2F9C4
:105360000020FEF7CFF9C920FEF7D8F90020FEF79C
:10537000C9F90020FEF7C6F90020FEF7C3F90020A6
:10538000FEF7C0F90020FEF7BDF90020FEF7BAF9DC
:105390000020FEF7B7F90020FEF7B4F90020FEF771
:1053A000B1F90020FEF7AEF90020FEF7ABF90020BE
:1053B000FEF7A8F90020FEF7A5F90020FEF7A2F9F4
:1053C0000020FEF79FF90020FEF79CF9E020FEF791
:1053D000A5F91620FEF796F90020FEF793F91C2098
:1053E000FEF790F90020FEF78DF92120FEF78AF9EB
:1053F0000020FEF787F93620FEF784F90020FEF73B
:1054000081F94620FEF77EF90020FEF77BF9522055
:10541000FEF778F90020FEF775F96420FEF772F9BF
:105420000020FEF76FF97A20FEF76CF90020FEF7F6
:1054300069F98B20FEF766F90020FEF763F99920E1
:10544000FEF760F90020FEF75DF9A820FEF75AF993
:105450000020FEF757F9B920FEF754F90020FEF7B7
:1054600051F9C420FEF74EF90020FEF74BF9CA208F
:10547000FEF748F90020FEF745F9D220FEF742F981
:105480000020FEF73FF9D920FEF73CF90020FEF797
:1054900039F9E020FEF736F90020FEF733F9F32062
:1054A000FEF730F90020FEF72DF9E120FEF736F97E
:1054B0001620FEF727F90020FEF724F91C20FEF73E
:1054C00021F90020FEF71EF92220FEF71BF900202B
:1054D000FEF718F93620FEF715F90020FEF712F94D
:1054E0004520FEF70FF90020FEF70CF95220FEF7D9
:1054F00009F90020FEF706F96420FEF703F9002001
:10550000FEF700F97A20FEF7FDF80020FEF7FAF822
:105510008B20FEF7F7F80020FEF7F4F89920FEF74D
:10552000F1F80020FEF7EEF8A820FEF7EBF80020D7
:10553000FEF7E8F8B920FEF7E5F80020FEF7E2F8FC
:10554000C420FEF7DFF80020FEF7DCF8CA20FEF7E3
:10555000D9F80020FEF7D6F8D220FEF7D3F80020C5
:10556000FEF7D0F8D820FEF7CDF80020FEF7CAF8F5
:10557000E020FEF7C7F80020FEF7C4F8F320FEF79E
:10558000C1F80020FEF7BEF8E220FEF7C7F80520BC
:10559000FEF7B8F80020FEF7B5F80B20FEF7B2F8DA
:1055A0000020FEF7AFF81B20FEF7ACF80020FEF756
:1055B000A9F83420FEF7A6F80020FEF7A3F844204F
:1055C000FEF7A0F80020FEF79DF84F20FEF79AF8AE
:1055D0000020FEF797F86120FEF794F80020FEF710
:1055E00091F87920FEF78EF80020FEF78BF88820DE
:1055F000FEF788F80020FEF785F89720FEF782F87E
:105600000020FEF77FF8A620FEF77CF80020FEF7CA
:1056100079F8B720FEF776F80020FEF773F8C2207D
:10562000FEF770F80020FEF76DF8C720FEF76AF865
:105630000020FEF767F8D120FEF764F80020FEF79F
:1056400061F8D620FEF75EF80020FEF75BF8DD205B
:10565000FEF758F80020FEF755F8F320FEF752F851
:105660000020FEF74FF8E320FEF758F80520FEF77C
:1056700049F80020FEF746F80A20FEF743F800201C
:10568000FEF740F81C20FEF73DF80020FEF73AF840
:105690003320FEF737F80020FEF734F84420FEF7F9
:1056A00031F80020FEF72EF85020FEF72BF80020EE
:1056B000FEF728F86220FEF725F80020FEF722F812
:1056C0007820FEF71FF80020FEF71CF88820FEF770
:1056D00019F80020FEF716F89720FEF713F80020BF
:1056E000FEF710F8A620FEF70DF80020FEF70AF8E6
:1056F000B720FEF707F80020FEF704F8C220FEF7F7
:1057000001F80020FDF7FEFFC720FDF7FBFF00209A
:10571000FDF7F8FFD120FDF7F5FF0020FDF7F2FFC0
:10572000D520FDF7EFFF0020FDF7ECFFDD20FDF7B2
:10573000E9FF0020FDF7E6FFF320FDF7E3FF00207F
:10574000FDF7E0FFE420FDF7E9FF0120FDF7DAFFB8
:105750000020FDF7D7FF0120FDF7D4FF0020FDF763
:10576000D1FF0220FDF7CEFF0020FDF7CBFF2A205E
:10577000FDF7C8FF0020FDF7C5FF3C20FDF7C2FF85
:105780000020FDF7BFFF4B20FDF7BCFF0020FDF719
:10579000B9FF5D20FDF7B6FF0020FDF7B3FF7420D1
:1057A000FDF7B0FF0020FDF7ADFF8420FDF7AAFF55
:1057B0000020FDF7A7FF9320FDF7A4FF0020FDF7D1
:1057C000A1FFA220FDF79EFF0020FDF79BFFB32065
:1057D000FDF798FF0020FDF795FFBE20FDF792FF33
:1057E0000020FDF78FFFC420FDF78CFF0020FDF7A0
:1057F00089FFCD20FDF786FF0020FDF783FFD32032
:10580000FDF780FF0020FDF77DFFDD20FDF77AFF2B
:105810000020FDF777FFF320FDF774FF0020FDF770
:1058200071FFE520FDF77AFF0020FDF76BFF0020F8
:10583000FDF768FF0020FDF765FF0020FDF762FF20
:105840000220FDF75FFF0020FDF75CFF2920FDF738
:1058500059FF0020FDF756FF3C20FDF753FF0020C5
:10586000FDF750FF4B20FDF74DFF0020FDF74AFFED
:105870005D20FDF747FF0020FDF744FF7420FDF792
:1058800041FF0020FDF73EFF8420FDF73BFF002095
:10589000FDF738FF9320FDF735FF0020FDF732FFBD
:1058A000A220FDF72FFF0020FDF72CFFB320FDF70E
:1058B00029FF0020FDF726FFBE20FDF723FF002073
:1058C000FDF720FFC420FDF71DFF0020FDF71AFFA4
:1058D000CD20FDF717FF0020FDF714FFD320FDF7C3
:1058E00011FF0020FDF70EFFDC20FDF70BFF00206D
:1058F000FDF708FFF320FDF705FF0020FDF702FF8D
:10590000E620FDF70BFF1120FDF7FCFE0020FDF760
:10591000F9FE3420FDF7F6FE0020FDF7F3FE5620D9
:10592000FDF7F0FE0020FDF7EDFE7620FDF7EAFE24
:105930000020FDF7E7FE7720FDF7E4FE0020FDF7ED
:10594000E1FE6620FDF7DEFE0020FDF7DBFE88208D
:10595000FDF7D8FE0020FDF7D5FE9920FDF7D2FE19
:105960000020FDF7CFFEBB20FDF7CCFE0020FDF7A9
:10597000C9FE9920FDF7C6FE0020FDF7C3FE662094
:10598000FDF7C0FE0020FDF7BDFE5520FDF7BAFE75
:105990000020FDF7B7FE5520FDF7B4FE0020FDF70F
:1059A000B1FE4520FDF7AEFE0020FDF7ABFE432023
:1059B000FDF7A8FE0020FDF7A5FE4420FDF7A2FE9E
:1059C0000020FDF79FFEE720FDF7A8FE3220FDF73F
:1059D00099FE0020FDF796FE5520FDF793FE00206E
:1059E000FDF790FE7620FDF78DFE0020FDF78AFE84
:1059F0006620FDF787FE0020FDF784FE6720FDF797
:105A000081FE0020FDF77EFE6720FDF77BFE002073
:105A1000FDF778FE8720FDF775FE0020FDF772FE8A
:105A20009920FDF76FFE0020FDF76CFEBB20FDF70F
:105A300069FE0020FDF766FE9920FDF763FE002059
:105A4000FDF760FE7720FDF75DFE0020FDF75AFEB2
:105A50004420FDF757FE0020FDF754FE5620FDF7C9
:105A600051FE0020FDF74EFE2320FDF74BFE0020E7
:105A7000FDF748FE3320FDF745FE0020FDF742FE0E
:105A80004520FDF73FFE0020FDF73CFEE820FDF736
:105A900045FE0020FDF736FE0020FDF733FE99207D
:105AA000FDF730FE0020FDF72DFE8720FDF72AFED2
:105AB0000020FDF727FE8820FDF724FE0020FDF7DB
:105AC00021FE7720FDF71EFE0020FDF71BFE66205D
:105AD000FDF718FE0020FDF715FE8820FDF712FEE9
